{
  "_format": "hh-sol-artifact-1",
  "contractName": "SomniaDevLog",
  "sourceName": "contracts/SomniaDevLog.sol",
  "abi": [
    {
      "anonymous": false,
      "inputs": [
        {
          "indexed": true,
          "internalType": "address",
          "name": "dev",
          "type": "address"
        },
        {
          "indexed": true,
          "internalType": "address",
          "name": "contractAddress",
          "type": "address"
        },
        {
          "indexed": false,
          "internalType": "string",
          "name": "name",
          "type": "string"
        }
      ],
      "name": "ContractRegistered",
      "type": "event"
    },
    {
      "anonymous": false,
      "inputs": [
        {
          "indexed": true,
          "internalType": "address",
          "name": "dev",
          "type": "address"
        },
        {
          "indexed": true,
          "internalType": "address",
          "name": "contractUsed",
          "type": "address"
        },
        {
          "indexed": false,
          "internalType": "uint8",
          "name": "kind",
          "type": "uint8"
        }
      ],
      "name": "DevPing",
      "type": "event"
    },
    {
      "inputs": [],
      "name": "getMyContracts",
      "outputs": [
        {
          "internalType": "address[]",
          "name": "addrs",
          "type": "address[]"
        },
        {
          "internalType": "string[]",
          "name": "labels",
          "type": "string[]"
        }
      ],
      "stateMutability": "view",
      "type": "function"
    },
    {
      "inputs": [
        {
          "internalType": "address",
          "name": "",
          "type": "address"
        },
        {
          "internalType": "address",
          "name": "",
          "type": "address"
        }
      ],
      "name": "isRegisteredByDev",
      "outputs": [
        {
          "internalType": "bool",
          "name": "",
          "type": "bool"
        }
      ],
      "stateMutability": "view",
      "type": "function"
    },
    {
      "inputs": [
        {
          "internalType": "address",
          "name": "",
          "type": "address"
        },
        {
          "internalType": "address",
          "name": "",
          "type": "address"
        }
      ],
      "name": "names",
      "outputs": [
        {
          "internalType": "string",
          "name": "",
          "type": "string"
        }
      ],
      "stateMutability": "view",
      "type": "function"
    },
    {
      "inputs": [
        {
          "internalType": "address",
          "name": "contractUsed",
          "type": "address"
        },
        {
          "internalType": "uint8",
          "name": "kind",
          "type": "uint8"
        }
      ],
      "name": "ping",
      "outputs": [],
      "stateMutability": "nonpayable",
      "type": "function"
    },
    {
      "inputs": [
        {
          "internalType": "string",
          "name": "name",
          "type": "string"
        },
        {
          "internalType": "address",
          "name": "contractAddress",
          "type": "address"
        }
      ],
      "name": "registerMyContract",
      "outputs": [],
      "stateMutability": "nonpayable",
      "type": "function"
    }
  ],
  "bytecode": "0x608060405234801561001057600080fd5b50611427806100206000396000f3fe608060405234801561001057600080fd5b50600436106100575760003560e01c80630c1095ef1461005c5780631bb0efbd14610078578063495b797c146100a85780639e0f3a0c146100d8578063c81bde15146100f4575b600080fd5b61007660048036038101906100719190610aa3565b610113565b005b610092600480360381019061008d9190610b03565b61043c565b60405161009f9190610bd3565b60405180910390f35b6100c260048036038101906100bd9190610b03565b6104e9565b6040516100cf9190610c10565b60405180910390f35b6100f260048036038101906100ed9190610c64565b610518565b005b6100fc610756565b60405161010a929190610e6e565b60405180910390f35b600073ffffffffffffffffffffffffffffffffffffffff168173ffffffffffffffffffffffffffffffffffffffff1603610182576040517f08c379a000000000000000000000000000000000000000000000000000000000815260040161017990610ef1565b60405180910390fd5b600160003373ffffffffffffffffffffffffffffffffffffffff1673ffffffffffffffffffffffffffffffffffffffff16815260200190815260200160002060008273ffffffffffffffffffffffffffffffffffffffff1673ffffffffffffffffffffffffffffffffffffffff16815260200190815260200160002060009054906101000a900460ff166103445760018060003373ffffffffffffffffffffffffffffffffffffffff1673ffffffffffffffffffffffffffffffffffffffff16815260200190815260200160002060008373ffffffffffffffffffffffffffffffffffffffff1673ffffffffffffffffffffffffffffffffffffffff16815260200190815260200160002060006101000a81548160ff0219169083151502179055506000803373ffffffffffffffffffffffffffffffffffffffff1673ffffffffffffffffffffffffffffffffffffffff168152602001908152602001600020819080600181540180825580915050600190039060005260206000200160009091909190916101000a81548173ffffffffffffffffffffffffffffffffffffffff021916908373ffffffffffffffffffffffffffffffffffffffff1602179055505b8282600260003373ffffffffffffffffffffffffffffffffffffffff1673ffffffffffffffffffffffffffffffffffffffff16815260200190815260200160002060008473ffffffffffffffffffffffffffffffffffffffff1673ffffffffffffffffffffffffffffffffffffffff16815260200190815260200160002091826103cf929190611161565b508073ffffffffffffffffffffffffffffffffffffffff163373ffffffffffffffffffffffffffffffffffffffff167fd124e417d48cb8e7e5d7949549210d9c11d53499e0606ee8b520433c8afaa9ed858560405161042f92919061126d565b60405180910390a3505050565b600260205281600052604060002060205280600052604060002060009150915050805461046890610f7a565b80601f016020809104026020016040519081016040528092919081815260200182805461049490610f7a565b80156104e15780601f106104b6576101008083540402835291602001916104e1565b820191906000526020600020905b8154815290600101906020018083116104c457829003601f168201915b505050505081565b60016020528160005260406000206020528060005260406000206000915091509054906101000a900460ff1681565b600073ffffffffffffffffffffffffffffffffffffffff168273ffffffffffffffffffffffffffffffffffffffff1603610587576040517f08c379a000000000000000000000000000000000000000000000000000000000815260040161057e90610ef1565b60405180910390fd5b60018081111561059a57610599611291565b5b60ff168160ff1611156105e2576040517f08c379a00000000000000000000000000000000000000000000000000000000081526004016105d99061130c565b60405180910390fd5b600060018111156105f6576105f5611291565b5b8160ff16600181111561060c5761060b611291565b5b600181111561061e5761061d611291565b5b036106ed57600160003373ffffffffffffffffffffffffffffffffffffffff1673ffffffffffffffffffffffffffffffffffffffff16815260200190815260200160002060008373ffffffffffffffffffffffffffffffffffffffff1673ffffffffffffffffffffffffffffffffffffffff16815260200190815260200160002060009054906101000a900460ff166106ec576040517f08c379a00000000000000000000000000000000000000000000000000000000081526004016106e390611378565b60405180910390fd5b5b8173ffffffffffffffffffffffffffffffffffffffff163373ffffffffffffffffffffffffffffffffffffffff167ffafdfc0f97738f5098ff5bc9082fc8ed8bdcc7b9a0ab82d74c80034f6ea87ba68360405161074a91906113a7565b60405180910390a35050565b60608060008060003373ffffffffffffffffffffffffffffffffffffffff1673ffffffffffffffffffffffffffffffffffffffff16815260200190815260200160002080548060200260200160405190810160405280929190818152602001828054801561081957602002820191906000526020600020905b8160009054906101000a900473ffffffffffffffffffffffffffffffffffffffff1673ffffffffffffffffffffffffffffffffffffffff16815260200190600101908083116107cf575b505050505090506000815167ffffffffffffffff81111561083d5761083c610f1c565b5b60405190808252806020026020018201604052801561087057816020015b606081526020019060019003908161085b5790505b50905060005b82518110156109c957600260003373ffffffffffffffffffffffffffffffffffffffff1673ffffffffffffffffffffffffffffffffffffffff16815260200190815260200160002060008483815181106108d3576108d26113c2565b5b602002602001015173ffffffffffffffffffffffffffffffffffffffff1673ffffffffffffffffffffffffffffffffffffffff168152602001908152602001600020805461092090610f7a565b80601f016020809104026020016040519081016040528092919081815260200182805461094c90610f7a565b80156109995780601f1061096e57610100808354040283529160200191610999565b820191906000526020600020905b81548152906001019060200180831161097c57829003601f168201915b50505050508282815181106109b1576109b06113c2565b5b60200260200101819052508080600101915050610876565b5081819350935050509091565b600080fd5b600080fd5b600080fd5b600080fd5b600080fd5b60008083601f840112610a0557610a046109e0565b5b8235905067ffffffffffffffff811115610a2257610a216109e5565b5b602083019150836001820283011115610a3e57610a3d6109ea565b5b9250929050565b600073ffffffffffffffffffffffffffffffffffffffff82169050919050565b6000610a7082610a45565b9050919050565b610a8081610a65565b8114610a8b57600080fd5b50565b600081359050610a9d81610a77565b92915050565b600080600060408486031215610abc57610abb6109d6565b5b600084013567ffffffffffffffff811115610ada57610ad96109db565b5b610ae6868287016109ef565b93509350506020610af986828701610a8e565b9150509250925092565b60008060408385031215610b1a57610b196109d6565b5b6000610b2885828601610a8e565b9250506020610b3985828601610a8e565b9150509250929050565b600081519050919050565b600082825260208201905092915050565b60005b83811015610b7d578082015181840152602081019050610b62565b60008484015250505050565b6000601f19601f8301169050919050565b6000610ba582610b43565b610baf8185610b4e565b9350610bbf818560208601610b5f565b610bc881610b89565b840191505092915050565b60006020820190508181036000830152610bed8184610b9a565b905092915050565b60008115159050919050565b610c0a81610bf5565b82525050565b6000602082019050610c256000830184610c01565b92915050565b600060ff82169050919050565b610c4181610c2b565b8114610c4c57600080fd5b50565b600081359050610c5e81610c38565b92915050565b60008060408385031215610c7b57610c7a6109d6565b5b6000610c8985828601610a8e565b9250506020610c9a85828601610c4f565b9150509250929050565b600081519050919050565b600082825260208201905092915050565b6000819050602082019050919050565b610cd981610a65565b82525050565b6000610ceb8383610cd0565b60208301905092915050565b6000602082019050919050565b6000610d0f82610ca4565b610d198185610caf565b9350610d2483610cc0565b8060005b83811015610d55578151610d3c8882610cdf565b9750610d4783610cf7565b925050600181019050610d28565b5085935050505092915050565b600081519050919050565b600082825260208201905092915050565b6000819050602082019050919050565b600082825260208201905092915050565b6000610daa82610b43565b610db48185610d8e565b9350610dc4818560208601610b5f565b610dcd81610b89565b840191505092915050565b6000610de48383610d9f565b905092915050565b6000602082019050919050565b6000610e0482610d62565b610e0e8185610d6d565b935083602082028501610e2085610d7e565b8060005b85811015610e5c5784840389528151610e3d8582610dd8565b9450610e4883610dec565b925060208a01995050600181019050610e24565b50829750879550505050505092915050565b60006040820190508181036000830152610e888185610d04565b90508181036020830152610e9c8184610df9565b90509392505050565b7f696e76616c696420616464726573730000000000000000000000000000000000600082015250565b6000610edb600f83610b4e565b9150610ee682610ea5565b602082019050919050565b60006020820190508181036000830152610f0a81610ece565b9050919050565b600082905092915050565b7f4e487b7100000000000000000000000000000000000000000000000000000000600052604160045260246000fd5b7f4e487b7100000000000000000000000000000000000000000000000000000000600052602260045260246000fd5b60006002820490506001821680610f9257607f821691505b602082108103610fa557610fa4610f4b565b5b50919050565b60008190508160005260206000209050919050565b60006020601f8301049050919050565b600082821b905092915050565b60006008830261100d7fffffffffffffffffffffffffffffffffffffffffffffffffffffffffffffffff82610fd0565b6110178683610fd0565b95508019841693508086168417925050509392505050565b6000819050919050565b6000819050919050565b600061105e6110596110548461102f565b611039565b61102f565b9050919050565b6000819050919050565b61107883611043565b61108c61108482611065565b848454610fdd565b825550505050565b600090565b6110a1611094565b6110ac81848461106f565b505050565b5b818110156110d0576110c5600082611099565b6001810190506110b2565b5050565b601f821115611115576110e681610fab565b6110ef84610fc0565b810160208510156110fe578190505b61111261110a85610fc0565b8301826110b1565b50505b505050565b600082821c905092915050565b60006111386000198460080261111a565b1980831691505092915050565b60006111518383611127565b9150826002028217905092915050565b61116b8383610f11565b67ffffffffffffffff81111561118457611183610f1c565b5b61118e8254610f7a565b6111998282856110d4565b6000601f8311600181146111c857600084156111b6578287013590505b6111c08582611145565b865550611228565b601f1984166111d686610fab565b60005b828110156111fe578489013582556001820191506020850194506020810190506111d9565b8683101561121b5784890135611217601f891682611127565b8355505b6001600288020188555050505b50505050505050565b82818337600083830152505050565b600061124c8385610b4e565b9350611259838584611231565b61126283610b89565b840190509392505050565b60006020820190508181036000830152611288818486611240565b90509392505050565b7f4e487b7100000000000000000000000000000000000000000000000000000000600052602160045260246000fd5b7f696e76616c6964206b696e640000000000000000000000000000000000000000600082015250565b60006112f6600c83610b4e565b9150611301826112c0565b602082019050919050565b60006020820190508181036000830152611325816112e9565b9050919050565b7f6e6f74206f776e65722d72656769737465726564000000000000000000000000600082015250565b6000611362601483610b4e565b915061136d8261132c565b602082019050919050565b6000602082019050818103600083015261139181611355565b9050919050565b6113a181610c2b565b82525050565b60006020820190506113bc6000830184611398565b92915050565b7f4e487b7100000000000000000000000000000000000000000000000000000000600052603260045260246000fdfea2646970667358221220e9e64791d4eb6a5a2fadb4b59c5e4dadecf5b2fb88515d2de1007e7564878ff864736f6c63430008180033",
  "linkReferences": {},
  "deployedLinkReferences": {}
}